{
  "_format": "hh-sol-artifact-1",
  "contractName": "PayPal",
  "sourceName": "contracts/PayPal.sol",
  "abi": [
    {
      "inputs": [],
      "stateMutability": "nonpayable",
      "type": "constructor"
    },
    {
      "inputs": [
        {
          "internalType": "string",
          "name": "_name",
          "type": "string"
        }
      ],
      "name": "addName",
      "outputs": [],
      "stateMutability": "nonpayable",
      "type": "function"
    },
    {
      "inputs": [
        {
          "internalType": "address",
          "name": "_requestReceiver",
          "type": "address"
        },
        {
          "internalType": "uint256",
          "name": "_amount",
          "type": "uint256"
        },
        {
          "internalType": "string",
          "name": "_message",
          "type": "string"
        }
      ],
      "name": "createRequest",
      "outputs": [],
      "stateMutability": "nonpayable",
      "type": "function"
    },
    {
      "inputs": [
        {
          "internalType": "address",
          "name": "_user",
          "type": "address"
        }
      ],
      "name": "getAllRequests",
      "outputs": [
        {
          "internalType": "address[]",
          "name": "",
          "type": "address[]"
        },
        {
          "internalType": "uint256[]",
          "name": "",
          "type": "uint256[]"
        },
        {
          "internalType": "string[]",
          "name": "",
          "type": "string[]"
        },
        {
          "internalType": "string[]",
          "name": "",
          "type": "string[]"
        }
      ],
      "stateMutability": "view",
      "type": "function"
    },
    {
      "inputs": [
        {
          "internalType": "address",
          "name": "_user",
          "type": "address"
        }
      ],
      "name": "getHistory",
      "outputs": [
        {
          "components": [
            {
              "internalType": "string",
              "name": "action",
              "type": "string"
            },
            {
              "internalType": "uint256",
              "name": "amount",
              "type": "uint256"
            },
            {
              "internalType": "string",
              "name": "message",
              "type": "string"
            },
            {
              "internalType": "address",
              "name": "otherPartyAddress",
              "type": "address"
            },
            {
              "internalType": "string",
              "name": "otherPartyName",
              "type": "string"
            }
          ],
          "internalType": "struct PayPal.sendReceive[]",
          "name": "",
          "type": "tuple[]"
        }
      ],
      "stateMutability": "view",
      "type": "function"
    },
    {
      "inputs": [
        {
          "internalType": "address",
          "name": "_user",
          "type": "address"
        }
      ],
      "name": "getUserName",
      "outputs": [
        {
          "components": [
            {
              "internalType": "bool",
              "name": "hasName",
              "type": "bool"
            },
            {
              "internalType": "string",
              "name": "name",
              "type": "string"
            }
          ],
          "internalType": "struct PayPal.username",
          "name": "",
          "type": "tuple"
        }
      ],
      "stateMutability": "view",
      "type": "function"
    },
    {
      "inputs": [],
      "name": "owner",
      "outputs": [
        {
          "internalType": "address",
          "name": "",
          "type": "address"
        }
      ],
      "stateMutability": "view",
      "type": "function"
    },
    {
      "inputs": [
        {
          "internalType": "uint256",
          "name": "_requestIndex",
          "type": "uint256"
        }
      ],
      "name": "payRequest",
      "outputs": [],
      "stateMutability": "payable",
      "type": "function"
    }
  ],
  "bytecode": "0x608060405234801561001057600080fd5b50336000806101000a81548173ffffffffffffffffffffffffffffffffffffffff021916908373ffffffffffffffffffffffffffffffffffffffff1602179055506124b7806100606000396000f3fe6080604052600436106100705760003560e01c8063803968111161004e57806380396811146100fa5780638da5cb5b14610137578063ba9a7a9e14610162578063d84f55ee1461018b57610070565b806311456b471461007557806363d4dd3b1461009e5780636c78184d146100ba575b600080fd5b34801561008157600080fd5b5061009c600480360381019061009791906117c3565b6101c8565b005b6100b860048036038101906100b39190611842565b61023e565b005b3480156100c657600080fd5b506100e160048036038101906100dc91906118cd565b61078c565b6040516100f19493929190611bb7565b60405180910390f35b34801561010657600080fd5b50610121600480360381019061011c91906118cd565b610c9a565b60405161012e9190611d5e565b60405180910390f35b34801561014357600080fd5b5061014c610f4e565b6040516101599190611d8f565b60405180910390f35b34801561016e57600080fd5b5061018960048036038101906101849190611daa565b610f72565b005b34801561019757600080fd5b506101b260048036038101906101ad91906118cd565b6111dc565b6040516101bf9190611e71565b60405180910390f35b6000600160003373ffffffffffffffffffffffffffffffffffffffff1673ffffffffffffffffffffffffffffffffffffffff16815260200190815260200160002090508181600101908161021c919061209f565b5060018160000160006101000a81548160ff0219169083151502179055505050565b80600260003373ffffffffffffffffffffffffffffffffffffffff1673ffffffffffffffffffffffffffffffffffffffff16815260200190815260200160002080549050116102c2576040517f08c379a00000000000000000000000000000000000000000000000000000000081526004016102b9906121ce565b60405180910390fd5b6000600260003373ffffffffffffffffffffffffffffffffffffffff1673ffffffffffffffffffffffffffffffffffffffff1681526020019081526020016000208281548110610315576103146121ee565b5b906000526020600020906004020190506000670de0b6b3a7640000826001015461033f919061224c565b9050803414610383576040517f08c379a000000000000000000000000000000000000000000000000000000000815260040161037a90612300565b60405180910390fd5b8160000160009054906101000a900473ffffffffffffffffffffffffffffffffffffffff1673ffffffffffffffffffffffffffffffffffffffff166108fc349081150290604051600060405180830381858888f193505050501580156103ed573d6000803e3d6000fd5b506104e4338360000160009054906101000a900473ffffffffffffffffffffffffffffffffffffffff16846001015485600201805461042b90611ec2565b80601f016020809104026020016040519081016040528092919081815260200182805461045790611ec2565b80156104a45780601f10610479576101008083540402835291602001916104a4565b820191906000526020600020905b81548152906001019060200180831161048757829003601f168201915b50505050506040518060400160405280600481526020017f73656e64000000000000000000000000000000000000000000000000000000008152506112e2565b6105da8260000160009054906101000a900473ffffffffffffffffffffffffffffffffffffffff1633846001015485600201805461052190611ec2565b80601f016020809104026020016040519081016040528092919081815260200182805461054d90611ec2565b801561059a5780601f1061056f5761010080835404028352916020019161059a565b820191906000526020600020905b81548152906001019060200180831161057d57829003601f168201915b50505050506040518060400160405280600781526020017f72656365697665000000000000000000000000000000000000000000000000008152506112e2565b6000600260003373ffffffffffffffffffffffffffffffffffffffff1673ffffffffffffffffffffffffffffffffffffffff1681526020019081526020016000209050806001828054905061062f9190612320565b815481106106405761063f6121ee565b5b9060005260206000209060040201818581548110610661576106606121ee565b5b90600052602060002090600402016000820160009054906101000a900473ffffffffffffffffffffffffffffffffffffffff168160000160006101000a81548173ffffffffffffffffffffffffffffffffffffffff021916908373ffffffffffffffffffffffffffffffffffffffff16021790555060018201548160010155600282018160020190816106f4919061236a565b5060038201816003019081610709919061236a565b509050508080548061071e5761071d612452565b5b6001900381819060005260206000209060040201600080820160006101000a81549073ffffffffffffffffffffffffffffffffffffffff02191690556001820160009055600282016000610772919061156d565b600382016000610782919061156d565b5050905550505050565b6060806060806000600260008773ffffffffffffffffffffffffffffffffffffffff1673ffffffffffffffffffffffffffffffffffffffff1681526020019081526020016000208054905067ffffffffffffffff8111156107f0576107ef611698565b5b60405190808252806020026020018201604052801561081e5781602001602082028036833780820191505090505b5090506000600260008873ffffffffffffffffffffffffffffffffffffffff1673ffffffffffffffffffffffffffffffffffffffff1681526020019081526020016000208054905067ffffffffffffffff81111561087f5761087e611698565b5b6040519080825280602002602001820160405280156108ad5781602001602082028036833780820191505090505b5090506000600260008973ffffffffffffffffffffffffffffffffffffffff1673ffffffffffffffffffffffffffffffffffffffff1681526020019081526020016000208054905067ffffffffffffffff81111561090e5761090d611698565b5b60405190808252806020026020018201604052801561094157816020015b606081526020019060019003908161092c5790505b5090506000600260008a73ffffffffffffffffffffffffffffffffffffffff1673ffffffffffffffffffffffffffffffffffffffff1681526020019081526020016000208054905067ffffffffffffffff8111156109a2576109a1611698565b5b6040519080825280602002602001820160405280156109d557816020015b60608152602001906001900390816109c05790505b50905060005b600260008b73ffffffffffffffffffffffffffffffffffffffff1673ffffffffffffffffffffffffffffffffffffffff16815260200190815260200160002080549050811015610c82576000600260008c73ffffffffffffffffffffffffffffffffffffffff1673ffffffffffffffffffffffffffffffffffffffff1681526020019081526020016000208281548110610a7857610a776121ee565b5b906000526020600020906004020190508060000160009054906101000a900473ffffffffffffffffffffffffffffffffffffffff16868381518110610ac057610abf6121ee565b5b602002602001019073ffffffffffffffffffffffffffffffffffffffff16908173ffffffffffffffffffffffffffffffffffffffff16815250508060010154858381518110610b1257610b116121ee565b5b602002602001018181525050806002018054610b2d90611ec2565b80601f0160208091040260200160405190810160405280929190818152602001828054610b5990611ec2565b8015610ba65780601f10610b7b57610100808354040283529160200191610ba6565b820191906000526020600020905b815481529060010190602001808311610b8957829003601f168201915b5050505050848381518110610bbe57610bbd6121ee565b5b6020026020010181905250806003018054610bd890611ec2565b80601f0160208091040260200160405190810160405280929190818152602001828054610c0490611ec2565b8015610c515780601f10610c2657610100808354040283529160200191610c51565b820191906000526020600020905b815481529060010190602001808311610c3457829003601f168201915b5050505050838381518110610c6957610c686121ee565b5b60200260200101819052505080806001019150506109db565b50838383839750975097509750505050509193509193565b6060600360008373ffffffffffffffffffffffffffffffffffffffff1673ffffffffffffffffffffffffffffffffffffffff168152602001908152602001600020805480602002602001604051908101604052809291908181526020016000905b82821015610f4357838290600052602060002090600502016040518060a0016040529081600082018054610d2e90611ec2565b80601f0160208091040260200160405190810160405280929190818152602001828054610d5a90611ec2565b8015610da75780601f10610d7c57610100808354040283529160200191610da7565b820191906000526020600020905b815481529060010190602001808311610d8a57829003601f168201915b5050505050815260200160018201548152602001600282018054610dca90611ec2565b80601f0160208091040260200160405190810160405280929190818152602001828054610df690611ec2565b8015610e435780601f10610e1857610100808354040283529160200191610e43565b820191906000526020600020905b815481529060010190602001808311610e2657829003601f168201915b505050505081526020016003820160009054906101000a900473ffffffffffffffffffffffffffffffffffffffff1673ffffffffffffffffffffffffffffffffffffffff1673ffffffffffffffffffffffffffffffffffffffff168152602001600482018054610eb290611ec2565b80601f0160208091040260200160405190810160405280929190818152602001828054610ede90611ec2565b8015610f2b5780601f10610f0057610100808354040283529160200191610f2b565b820191906000526020600020905b815481529060010190602001808311610f0e57829003601f168201915b50505050508152505081526020019060010190610cfb565b505050509050919050565b60008054906101000a900473ffffffffffffffffffffffffffffffffffffffff1681565b610f7a6115ad565b33816000019073ffffffffffffffffffffffffffffffffffffffff16908173ffffffffffffffffffffffffffffffffffffffff168152505082816020018181525050818160400181905250600160003373ffffffffffffffffffffffffffffffffffffffff1673ffffffffffffffffffffffffffffffffffffffff16815260200190815260200160002060000160009054906101000a900460ff16156110ee57600160003373ffffffffffffffffffffffffffffffffffffffff1673ffffffffffffffffffffffffffffffffffffffff168152602001908152602001600020600101805461106790611ec2565b80601f016020809104026020016040519081016040528092919081815260200182805461109390611ec2565b80156110e05780601f106110b5576101008083540402835291602001916110e0565b820191906000526020600020905b8154815290600101906020018083116110c357829003601f168201915b505050505081606001819052505b600260008573ffffffffffffffffffffffffffffffffffffffff1673ffffffffffffffffffffffffffffffffffffffff16815260200190815260200160002081908060018154018082558091505060019003906000526020600020906004020160009091909190915060008201518160000160006101000a81548173ffffffffffffffffffffffffffffffffffffffff021916908373ffffffffffffffffffffffffffffffffffffffff1602179055506020820151816001015560408201518160020190816111bd919061209f565b5060608201518160030190816111d3919061209f565b50505050505050565b6111e46115eb565b600160008373ffffffffffffffffffffffffffffffffffffffff1673ffffffffffffffffffffffffffffffffffffffff1681526020019081526020016000206040518060400160405290816000820160009054906101000a900460ff1615151515815260200160018201805461125990611ec2565b80601f016020809104026020016040519081016040528092919081815260200182805461128590611ec2565b80156112d25780601f106112a7576101008083540402835291602001916112d2565b820191906000526020600020905b8154815290600101906020018083116112b557829003601f168201915b5050505050815250509050919050565b6112ea611607565b8181600001819052508381602001818152505082816040018190525084816060019073ffffffffffffffffffffffffffffffffffffffff16908173ffffffffffffffffffffffffffffffffffffffff1681525050600160008673ffffffffffffffffffffffffffffffffffffffff1673ffffffffffffffffffffffffffffffffffffffff16815260200190815260200160002060000160009054906101000a900460ff161561146757600160008673ffffffffffffffffffffffffffffffffffffffff1673ffffffffffffffffffffffffffffffffffffffff16815260200190815260200160002060010180546113e090611ec2565b80601f016020809104026020016040519081016040528092919081815260200182805461140c90611ec2565b80156114595780601f1061142e57610100808354040283529160200191611459565b820191906000526020600020905b81548152906001019060200180831161143c57829003601f168201915b505050505081608001819052505b600360008773ffffffffffffffffffffffffffffffffffffffff1673ffffffffffffffffffffffffffffffffffffffff16815260200190815260200160002081908060018154018082558091505060019003906000526020600020906005020160009091909190915060008201518160000190816114e5919061209f565b50602082015181600101556040820151816002019081611505919061209f565b5060608201518160030160006101000a81548173ffffffffffffffffffffffffffffffffffffffff021916908373ffffffffffffffffffffffffffffffffffffffff1602179055506080820151816004019081611562919061209f565b505050505050505050565b50805461157990611ec2565b6000825580601f1061158b57506115aa565b601f0160209004906000526020600020908101906115a9919061164c565b5b50565b6040518060800160405280600073ffffffffffffffffffffffffffffffffffffffff1681526020016000815260200160608152602001606081525090565b6040518060400160405280600015158152602001606081525090565b6040518060a00160405280606081526020016000815260200160608152602001600073ffffffffffffffffffffffffffffffffffffffff168152602001606081525090565b5b8082111561166557600081600090555060010161164d565b5090565b6000604051905090565b600080fd5b600080fd5b600080fd5b600080fd5b6000601f19601f8301169050919050565b7f4e487b7100000000000000000000000000000000000000000000000000000000600052604160045260246000fd5b6116d082611687565b810181811067ffffffffffffffff821117156116ef576116ee611698565b5b80604052505050565b6000611702611669565b905061170e82826116c7565b919050565b600067ffffffffffffffff82111561172e5761172d611698565b5b61173782611687565b9050602081019050919050565b82818337600083830152505050565b600061176661176184611713565b6116f8565b90508281526020810184848401111561178257611781611682565b5b61178d848285611744565b509392505050565b600082601f8301126117aa576117a961167d565b5b81356117ba848260208601611753565b91505092915050565b6000602082840312156117d9576117d8611673565b5b600082013567ffffffffffffffff8111156117f7576117f6611678565b5b61180384828501611795565b91505092915050565b6000819050919050565b61181f8161180c565b811461182a57600080fd5b50565b60008135905061183c81611816565b92915050565b60006020828403121561185857611857611673565b5b60006118668482850161182d565b91505092915050565b600073ffffffffffffffffffffffffffffffffffffffff82169050919050565b600061189a8261186f565b9050919050565b6118aa8161188f565b81146118b557600080fd5b50565b6000813590506118c7816118a1565b92915050565b6000602082840312156118e3576118e2611673565b5b60006118f1848285016118b8565b91505092915050565b600081519050919050565b600082825260208201905092915050565b6000819050602082019050919050565b61192f8161188f565b82525050565b60006119418383611926565b60208301905092915050565b6000602082019050919050565b6000611965826118fa565b61196f8185611905565b935061197a83611916565b8060005b838110156119ab5781516119928882611935565b975061199d8361194d565b92505060018101905061197e565b5085935050505092915050565b600081519050919050565b600082825260208201905092915050565b6000819050602082019050919050565b6119ed8161180c565b82525050565b60006119ff83836119e4565b60208301905092915050565b6000602082019050919050565b6000611a23826119b8565b611a2d81856119c3565b9350611a38836119d4565b8060005b83811015611a69578151611a5088826119f3565b9750611a5b83611a0b565b925050600181019050611a3c565b5085935050505092915050565b600081519050919050565b600082825260208201905092915050565b6000819050602082019050919050565b600081519050919050565b600082825260208201905092915050565b60005b83811015611adc578082015181840152602081019050611ac1565b60008484015250505050565b6000611af382611aa2565b611afd8185611aad565b9350611b0d818560208601611abe565b611b1681611687565b840191505092915050565b6000611b2d8383611ae8565b905092915050565b6000602082019050919050565b6000611b4d82611a76565b611b578185611a81565b935083602082028501611b6985611a92565b8060005b85811015611ba55784840389528151611b868582611b21565b9450611b9183611b35565b925060208a01995050600181019050611b6d565b50829750879550505050505092915050565b60006080820190508181036000830152611bd1818761195a565b90508181036020830152611be58186611a18565b90508181036040830152611bf98185611b42565b90508181036060830152611c0d8184611b42565b905095945050505050565b600081519050919050565b600082825260208201905092915050565b6000819050602082019050919050565b600060a0830160008301518482036000860152611c618282611ae8565b9150506020830151611c7660208601826119e4565b5060408301518482036040860152611c8e8282611ae8565b9150506060830151611ca36060860182611926565b5060808301518482036080860152611cbb8282611ae8565b9150508091505092915050565b6000611cd48383611c44565b905092915050565b6000602082019050919050565b6000611cf482611c18565b611cfe8185611c23565b935083602082028501611d1085611c34565b8060005b85811015611d4c5784840389528151611d2d8582611cc8565b9450611d3883611cdc565b925060208a01995050600181019050611d14565b50829750879550505050505092915050565b60006020820190508181036000830152611d788184611ce9565b905092915050565b611d898161188f565b82525050565b6000602082019050611da46000830184611d80565b92915050565b600080600060608486031215611dc357611dc2611673565b5b6000611dd1868287016118b8565b9350506020611de28682870161182d565b925050604084013567ffffffffffffffff811115611e0357611e02611678565b5b611e0f86828701611795565b9150509250925092565b60008115159050919050565b611e2e81611e19565b82525050565b6000604083016000830151611e4c6000860182611e25565b5060208301518482036020860152611e648282611ae8565b9150508091505092915050565b60006020820190508181036000830152611e8b8184611e34565b905092915050565b7f4e487b7100000000000000000000000000000000000000000000000000000000600052602260045260246000fd5b60006002820490506001821680611eda57607f821691505b602082108103611eed57611eec611e93565b5b50919050565b60008190508160005260206000209050919050565b60006020601f8301049050919050565b600082821b905092915050565b600060088302611f557fffffffffffffffffffffffffffffffffffffffffffffffffffffffffffffffff82611f18565b611f5f8683611f18565b95508019841693508086168417925050509392505050565b6000819050919050565b6000611f9c611f97611f928461180c565b611f77565b61180c565b9050919050565b6000819050919050565b611fb683611f81565b611fca611fc282611fa3565b848454611f25565b825550505050565b600090565b611fdf611fd2565b611fea818484611fad565b505050565b5b8181101561200e57612003600082611fd7565b600181019050611ff0565b5050565b601f8211156120535761202481611ef3565b61202d84611f08565b8101602085101561203c578190505b61205061204885611f08565b830182611fef565b50505b505050565b600082821c905092915050565b600061207660001984600802612058565b1980831691505092915050565b600061208f8383612065565b9150826002028217905092915050565b6120a882611aa2565b67ffffffffffffffff8111156120c1576120c0611698565b5b6120cb8254611ec2565b6120d6828285612012565b600060209050601f83116001811461210957600084156120f7578287015190505b6121018582612083565b865550612169565b601f19841661211786611ef3565b60005b8281101561213f5784890151825560018201915060208501945060208101905061211a565b8683101561215c5784890151612158601f891682612065565b8355505b6001600288020188555050505b505050505050565b600082825260208201905092915050565b7f5265717565737420646f6573206e6f7420657869737400000000000000000000600082015250565b60006121b8601683612171565b91506121c382612182565b602082019050919050565b600060208201905081810360008301526121e7816121ab565b9050919050565b7f4e487b7100000000000000000000000000000000000000000000000000000000600052603260045260246000fd5b7f4e487b7100000000000000000000000000000000000000000000000000000000600052601160045260246000fd5b60006122578261180c565b91506122628361180c565b92508282026122708161180c565b915082820484148315176122875761228661221d565b5b5092915050565b7f416d6f756e742073656e74206973206e6f74206d61746368696e67207468652060008201527f7265717565737420616d6f756e74000000000000000000000000000000000000602082015250565b60006122ea602e83612171565b91506122f58261228e565b604082019050919050565b60006020820190508181036000830152612319816122dd565b9050919050565b600061232b8261180c565b91506123368361180c565b925082820390508181111561234e5761234d61221d565b5b92915050565b60008154905061236381611ec2565b9050919050565b818103612378575050612450565b61238182612354565b67ffffffffffffffff81111561239a57612399611698565b5b6123a48254611ec2565b6123af828285612012565b6000601f8311600181146123de57600084156123cc578287015490505b6123d68582612083565b865550612449565b601f1984166123ec87611ef3565b96506123f786611ef3565b60005b8281101561241f578489015482556001820191506001850194506020810190506123fa565b8683101561243c5784890154612438601f891682612065565b8355505b6001600288020188555050505b5050505050505b565b7f4e487b7100000000000000000000000000000000000000000000000000000000600052603160045260246000fdfea2646970667358221220aed34f014be7ad5afe285e26c80255a6fdf907506d3ec7ca18d062ada3eded8764736f6c63430008180033",
  "linkReferences": {},
  "deployedLinkReferences": {}
}